:100000000C9472000C9493000C9493000C94930045
:100010000C9493000C94E60B0C94BB0B0C94110CF9
:100020000C9493000C9493000C9493000C94930004
:100030000C9493000C9493000C9493000C949300F4
:100040000C9493000C9493000C9493000C949300E4
:100050000C9493000C9493000C9493000C949300D4
:100060000C9493000C9493000C9493000C949300C4
:100070000C9493000C9493000C9493000C949300B4
:100080000C9493000C9493000C9493000C949300A4
:100090000C9493000C9493000C9493000C94930094
:1000A0000C9493000C9493000C9493000C94930084
:1000B0000C9493000C9493000C9493000C94930074
:1000C0000C9493000C9493000C9493000C94930064
:1000D0000C9493000C9493000C9493000C94930054
:1000E0000C94930011241FBECFEFD1E2DEBFCDBF31
:1000F00000E00CBF13E0A0E0B2E0E4EAFFE300E0C0
:100100000BBF02C007900D92A830B107D9F713E0DA
:10011000A8E0B3E001C01D92A432B107E1F70E944C
:10012000BA0E0C94D01F0C9400000F931F93DF9312
:10013000CF93CDB7DEB7C057D0400FB6F894DEBF2F
:100140000FBECDBFFE01E359FF4F80E090E0A0E875
:10015000BFE380839183A283B3838E0107591F4F2E
:10016000FE01E359FF4F608171818281938126E610
:1001700036E646E655E40E948D1ADC01CB01F80113
:1001800080839183A283B383FE01E759FF4F60818F
:1001900071818281938120E030E040E85FE30E943A
:1001A000931C882344F4FE01E959FF4F81E090E05D
:1001B0009183808364C0FE01E759FF4F60817181A4
:1001C0008281938120E03FEF4FE757E40E94331C88
:1001D00018160CF043C0FE01E359FF4F6081718196
:1001E0008281938120E030E040E251E40E948D1A48
:1001F000DC01CB018E0109591F4FBC01CD010E94CA
:10020000B718DC01CB01F801918380831FC0FE0188
:10021000EB59FF4F80E791E091838083FE01EB591A
:10022000FF4F808191810197F1F7FE01EB59FF4F5C
:1002300091838083DE01A959BF4FFE01E959FF4F29
:1002400080819181019711969C938E93FE01E959CB
:10025000FF4F808191810097D1F627C08E01095907
:100260001F4FFE01E759FF4F6081718182819381A9
:100270000E94B718DC01CB01F80191838083DE0175
:10028000AD59BF4FFE01E959FF4F808191818D9398
:100290009C93FE01ED59FF4F808191810197F1F709
:1002A000FE01ED59FF4F91838083A8E2B0E0E8E2C0
:1002B000F0E080818E7F8C93A8E2B0E0E8E2F0E08D
:1002C00080818D7F8C93E8E2F0E080E38083A8E278
:1002D000B0E0E8E2F0E0808184608C93FE01E15AB6
:1002E000FF4F80E090E0A0EAB0E480839183A28396
:1002F000B3838E01055A1F4FFE01E15AFF4F608103
:1003000071818281938126E636E646E655E40E94B5
:100310008D1ADC01CB01F80180839183A283B38322
:10032000FE01E55AFF4F608171818281938120E057
:1003300030E040E85FE30E94931C882344F4FE0110
:10034000E75AFF4F81E090E09183808364C0FE0113
:10035000E55AFF4F608171818281938120E03FEFF8
:100360004FE757E40E94331C18160CF043C0FE01FF
:10037000E15AFF4F608171818281938120E030E0FA
:1003800040E251E40E948D1ADC01CB018E01075A34
:100390001F4FBC01CD010E94B718DC01CB01F80151
:1003A000918380831FC0FE01E95AFF4F80E791E0EF
:1003B00091838083FE01E95AFF4F808191810197EB
:1003C000F1F7FE01E95AFF4F91838083DE01A75ABE
:1003D000BF4FFE01E75AFF4F80819181019711962F
:1003E0009C938E93FE01E75AFF4F80819181009785
:1003F000D1F627C08E01075A1F4FFE01E55AFF4F65
:1004000060817181828193810E94B718DC01CB01E8
:10041000F80191838083DE01AB5ABF4FFE01E75A9A
:10042000FF4F808191818D939C93FE01EB5AFF4F8A
:10043000808191810197F1F7FE01EB5AFF4F918383
:100440008083A8E2B0E0E8E2F0E080818B7F8C93CB
:10045000FE01EF5AFF4F80E090E0A0E8BFE3808309
:100460009183A283B3838E01035B1F4FFE01EF5A7A
:10047000FF4F608171818281938126E636E646E6F0
:1004800055E40E948D1ADC01CB01F8018083918331
:10049000A283B383FE01E35BFF4F608171818281A0
:1004A000938120E030E040E85FE30E94931C8823C2
:1004B00044F4FE01E55BFF4F81E090E0918380838F
:1004C00064C0FE01E35BFF4F608171818281938193
:1004D00020E03FEF4FE757E40E94331C18160CF062
:1004E00043C0FE01EF5AFF4F608171818281938189
:1004F00020E030E040E251E40E948D1ADC01CB01A3
:100500008E01055B1F4FBC01CD010E94B718DC01B5
:10051000CB01F801918380831FC0FE01E75BFF4F91
:1005200080E791E091838083FE01E75BFF4F80814C
:1005300091810197F1F7FE01E75BFF4F9183808383
:10054000DE01A55BBF4FFE01E55BFF4F808191811E
:10055000019711969C938E93FE01E55BFF4F80817E
:1005600091810097D1F627C08E01055B1F4FFE01D8
:10057000E35BFF4F60817181828193810E94B71894
:10058000DC01CB01F80191838083DE01A95BBF4FC1
:10059000FE01E55BFF4F808191818D939C93FE016D
:1005A000E95BFF4F808191810197F1F7FE01E95BE3
:1005B000FF4F91838083A8E2B0E0E8E2F0E0808121
:1005C0008E7F8C93A8E2B0E0E8E2F0E080818D7F3E
:1005D0008C93E8E2F0E080E38083A8E2B0E0E8E218
:1005E000F0E0808184608C93FE01ED5BFF4F80E042
:1005F00090E0A0EAB0E480839183A283B3838E016C
:10060000015C1F4FFE01ED5BFF4F608171818281B4
:10061000938126E636E646E655E40E948D1ADC0113
:10062000CB01F80180839183A283B383FE01FF96FF
:10063000608171818281938120E030E040E85FE356
:100640000E94931C88232CF481E090E09EAF8DAF34
:1006500046C0FE01FF96608171818281938120E016
:100660003FEF4FE757E40E94331C181664F5FE0174
:10067000ED5BFF4F608171818281938120E030E0EA
:1006800040E251E40E948D1ADC01CB01BC01CD0196
:100690000E94B718DC01CB019EAF8DAF0FC080E781
:1006A00091E09CAF8BAF8BAD9CAD0197F1F79CAF08
:1006B0008BAF8DAD9EAD01979EAF8DAF8DAD9EADD5
:1006C000009769F716C0FE01FF96608171818281F3
:1006D00093810E94B718DC01CB019EAF8DAF8DAD29
:1006E0009EAD9AAF89AF89AD9AAD0197F1F79AAFF8
:1006F00089AFA8E2B0E0E8E2F0E080818B7F8C93E4
:1007000080E090E0A0E8BFE38DAB9EABAFABB8AFAD
:100710006DA97EA98FA998AD26E636E646E655E492
:100720000E948D1ADC01CB0189AB9AABABABBCABA1
:1007300069A97AA98BA99CA920E030E040E85FE391
:100740000E94931C88232CF481E090E098AB8FA743
:100750003FC069A97AA98BA99CA920E03FEF4FE788
:1007600057E40E94331C18164CF56DA97EA98FA979
:1007700098AD20E030E040E251E40E948D1ADC01A7
:10078000CB01BC01CD010E94B718DC01CB0198ABB5
:100790008FA70FC080E791E09EA78DA78DA59EA58E
:1007A0000197F1F79EA78DA78FA598A9019798AB00
:1007B0008FA78FA598A9009769F714C069A97AA98E
:1007C0008BA99CA90E94B718DC01CB0198AB8FA71D
:1007D0008FA598A99CA78BA78BA59CA50197F1F73E
:1007E0009CA78BA7A8E2B0E0E8E2F0E080818E7FD2
:1007F0008C93A8E2B0E0E8E2F0E080818D7F8C93FA
:10080000E8E2F0E080E38083A8E2B0E0E8E2F0E034
:10081000808184608C9380E090E0A0EAB0E48FA3B4
:1008200098A7A9A7BAA76FA178A589A59AA526E632
:1008300036E646E655E40E948D1ADC01CB018BA317
:100840009CA3ADA3BEA36BA17CA18DA19EA120E022
:1008500030E040E85FE30E94931C88232CF481E0A1
:1008600090E09AA389A33FC06BA17CA18DA19EA11A
:1008700020E03FEF4FE757E40E94331C18164CF579
:100880006FA178A589A59AA520E030E040E251E467
:100890000E948D1ADC01CB01BC01CD010E94B7186A
:1008A000DC01CB019AA389A30FC080E791E098A354
:1008B0008F8F8F8D98A10197F1F798A38F8F89A1C2
:1008C0009AA101979AA389A389A19AA1009769F790
:1008D00014C06BA17CA18DA19EA10E94B718DC0160
:1008E000CB019AA389A389A19AA19E8F8D8F8D8D0B
:1008F0009E8D0197F1F79E8F8D8FA8E2B0E0E8E220
:10090000F0E080818B7F8C9380E090E0A0E8BFE3F3
:10091000898F9A8FAB8FBC8F698D7A8D8B8D9C8DD3
:1009200026E636E646E655E40E948D1ADC01CB0148
:100930008D8B9E8BAF8BB88F6D897E898F89988DBB
:1009400020E030E040E85FE30E94931C88232CF411
:1009500081E090E09C8B8B8B3FC06D897E898F8975
:10096000988D20E03FEF4FE757E40E94331C1816A4
:100970004CF5698D7A8D8B8D9C8D20E030E040E2C6
:1009800051E40E948D1ADC01CB01BC01CD010E9413
:10099000B718DC01CB019C8B8B8B0FC080E791E0FB
:1009A0009A8B898B89899A890197F1F79A8B898B20
:1009B0008B899C8901979C8B8B8B8B899C89009759
:1009C00069F714C06D897E898F89988D0E94B71848
:1009D000DC01CB019C8B8B8B8B899C89988B8F87BF
:1009E0008F8598890197F1F7988B8F87A8E2B0E0FF
:1009F000E8E2F0E080818E7F8C93A8E2B0E0E8E24C
:100A0000F0E080818D7F8C93E8E2F0E080E28083EB
:100A1000A8E2B0E0E8E2F0E0808184608C9380E0BE
:100A200090E0A0EAB0E48B879C87AD87BE876B859A
:100A30007C858D859E8526E636E646E655E40E9451
:100A40008D1ADC01CB018F839887A987BA876F81C4
:100A5000788589859A8520E030E040E85FE30E9450
:100A6000931C88232CF481E090E09E838D833FC00B
:100A70006F81788589859A8520E03FEF4FE757E4BD
:100A80000E94331C18164CF56B857C858D859E85E0
:100A900020E030E040E251E40E948D1ADC01CB01FD
:100AA000BC01CD010E94B718DC01CB019E838D8370
:100AB0000FC080E791E09C838B838B819C810197A1
:100AC000F1F79C838B838D819E8101979E838D831B
:100AD0008D819E81009769F714C06F817885898523
:100AE0009A850E94B718DC01CB019E838D838D818E
:100AF0009E819A83898389819A810197F1F79A83EC
:100B00008983A8E2B0E0E8E2F0E080818B7F8C93FB
:100B1000C059DF4F0FB6F894DEBF0FBECDBFCF91E7
:100B2000DF911F910F910895DF93CF93CDB7DEB77B
:100B30002E970FB6F894DEBF0FBECDBF80E090E0D9
:100B4000A0E8BFE38B879C87AD87BE876B857C85DC
:100B50008D859E8526E636E646E655E40E948D1A8A
:100B6000DC01CB018F839887A987BA876F8178854D
:100B700089859A8520E030E040E85FE30E94931C7D
:100B800088232CF481E090E09E838D833FC06F81A9
:100B9000788589859A8520E03FEF4FE757E40E94EA
:100BA000331C18164CF56B857C858D859E8520E061
:100BB00030E040E251E40E948D1ADC01CB01BC011F
:100BC000CD010E94B718DC01CB019E838D830FC03D
:100BD00080E791E09C838B838B819C810197F1F767
:100BE0009C838B838D819E8101979E838D838D81D4
:100BF0009E81009769F714C06F81788589859A85F1
:100C00000E94B718DC01CB019E838D838D819E816C
:100C10009A83898389819A810197F1F79A838983DD
:100C200088E20E94280681E00E94280686E00E9451
:100C300028068EE00E94280680E80E9428062E964C
:100C40000FB6F894DEBF0FBECDBFCF91DF910895F0
:100C5000DF93CF93CDB7DEB76E970FB6F894DEBFB4
:100C60000FBECDBF8E8F8E8D8D8F8D8D807F8D8FA2
:100C7000A8E2B0E0E8E2F0E080818F708C93A8E217
:100C8000B0E0E8E2F0E090818D8D892B8C93A8E2B2
:100C9000B0E0E8E2F0E080818E7F8C93A8E2B0E0E3
:100CA000E8E2F0E080818D7F8C93A8E2B0E0E8E29A
:100CB000F0E0808184608C9380E090E0A0EAB0E472
:100CC000898F9A8FAB8FBC8F698D7A8D8B8D9C8D20
:100CD00026E636E646E655E40E948D1ADC01CB0195
:100CE0008D8B9E8BAF8BB88F6D897E898F89988D08
:100CF00020E030E040E85FE30E94931C88232CF45E
:100D000081E090E09C8B8B8B3FC06D897E898F89C1
:100D1000988D20E03FEF4FE757E40E94331C1816F0
:100D20004CF5698D7A8D8B8D9C8D20E030E040E212
:100D300051E40E948D1ADC01CB01BC01CD010E945F
:100D4000B718DC01CB019C8B8B8B0FC080E791E047
:100D50009A8B898B89899A890197F1F79A8B898B6C
:100D60008B899C8901979C8B8B8B8B899C890097A5
:100D700069F714C06D897E898F89988D0E94B71894
:100D8000DC01CB019C8B8B8B8B899C89988B8F870B
:100D90008F8598890197F1F7988B8F87A8E2B0E04B
:100DA000E8E2F0E080818B7F8C938E8D8F708E8F48
:100DB0008E8D8295807F8E8FA8E2B0E0E8E2F0E031
:100DC00080818F708C93A8E2B0E0E8E2F0E090813F
:100DD0008E8D892B8C93A8E2B0E0E8E2F0E0808170
:100DE0008E7F8C93A8E2B0E0E8E2F0E080818D7F16
:100DF0008C93A8E2B0E0E8E2F0E0808184608C931C
:100E000080E090E0A0EAB0E48B879C87AD87BE8746
:100E10006B857C858D859E8526E636E646E655E41F
:100E20000E948D1ADC01CB018F839887A987BA872E
:100E30006F81788589859A8520E030E040E85FE31E
:100E40000E94931C88232CF481E090E09E838D8384
:100E50003FC06F81788589859A8520E03FEF4FE715
:100E600057E40E94331C18164CF56B857C858D85E4
:100E70009E8520E030E040E251E40E948D1ADC01C2
:100E8000CB01BC01CD010E94B718DC01CB019E83D0
:100E90008D830FC080E791E09C838B838B819C8145
:100EA0000197F1F79C838B838D819E8101979E83AF
:100EB0008D838D819E81009769F714C06F8178853D
:100EC00089859A850E94B718DC01CB019E838D83AA
:100ED0008D819E819A83898389819A810197F1F717
:100EE0009A838983A8E2B0E0E8E2F0E080818B7F1A
:100EF0008C936E960FB6F894DEBF0FBECDBFCF9128
:100F0000DF910895DF93CF93CDB7DEB76E970FB61D
:100F1000F894DEBF0FBECDBF8E8F8E8D8D8F8D8DE1
:100F2000807F8D8FA8E2B0E0E8E2F0E080818F70F2
:100F30008C93A8E2B0E0E8E2F0E090818D8D892BFF
:100F40008C93A8E2B0E0E8E2F0E0808181608C93CD
:100F5000A8E2B0E0E8E2F0E080818D7F8C93A8E227
:100F6000B0E0E8E2F0E0808184608C9380E090E083
:100F7000A0EAB0E4898F9A8FAB8FBC8F698D7A8D90
:100F80008B8D9C8D26E636E646E655E40E948D1A4A
:100F9000DC01CB018D8B9E8BAF8BB88F6D897E89E9
:100FA0008F89988D20E030E040E85FE30E94931C39
:100FB00088232CF481E090E09C8B8B8B3FC06D8963
:100FC0007E898F89988D20E03FEF4FE757E40E949C
:100FD000331C18164CF5698D7A8D8B8D9C8D20E015
:100FE00030E040E251E40E948D1ADC01CB01BC01EB
:100FF000CD010E94B718DC01CB019C8B8B8B0FC0FD
:1010000080E791E09A8B898B89899A890197F1F71A
:101010009A8B898B8B899C8901979C8B8B8B8B8975
:101020009C89009769F714C06D897E898F89988D96
:101030000E94B718DC01CB019C8B8B8B8B899C8920
:10104000988B8F878F8598890197F1F7988B8F8779
:10105000A8E2B0E0E8E2F0E080818B7F8C938E8D97
:101060008F708E8F8E8D8295807F8E8FA8E2B0E0FC
:10107000E8E2F0E080818F708C93A8E2B0E0E8E2D3
:10108000F0E090818E8D892B8C93A8E2B0E0E8E2AD
:10109000F0E0808181608C93A8E2B0E0E8E2F0E0CB
:1010A00080818D7F8C93A8E2B0E0E8E2F0E080815F
:1010B00084608C9380E090E0A0EAB0E48B879C870A
:1010C000AD87BE876B857C858D859E8526E636E659
:1010D00046E655E40E948D1ADC01CB018F83988788
:1010E000A987BA876F81788589859A8520E030E065
:1010F00040E85FE30E94931C88232CF481E090E099
:101100009E838D833FC06F81788589859A8520E095
:101110003FEF4FE757E40E94331C18164CF56B85E0
:101120007C858D859E8520E030E040E251E40E9480
:101130008D1ADC01CB01BC01CD010E94B718DC0186
:10114000CB019E838D830FC080E791E09C838B83CE
:101150008B819C810197F1F79C838B838D819E818C
:1011600001979E838D838D819E81009769F714C0BE
:101170006F81788589859A850E94B718DC01CB013B
:101180009E838D838D819E819A83898389819A81B3
:101190000197F1F79A838983A8E2B0E0E8E2F0E0F2
:1011A00080818B7F8C936E960FB6F894DEBF0FBE56
:1011B000CDBFCF91DF910895DF93CF93CDB7DEB749
:1011C00080E80E942806CF91DF910895DF93CF93A6
:1011D0000F920F92CDB7DEB79A8389830AC0E98157
:1011E000FA8180810E94820789819A8101969A837F
:1011F0008983E981FA818081882389F70F900F9094
:10120000CF91DF910895DF93CF9300D00F92CDB7A8
:10121000DEB789836A838981282F30E03C832B8362
:101220008B819C8182309105D9F02B813C812330C8
:10123000310534F48B819C818130910561F01EC0B1
:101240002B813C812330310581F08B819C8184305E
:10125000910581F013C08A8181580E9428060EC032
:101260008A8181540E94280609C08A818D560E9475
:10127000280604C08A818D520E9428060F900F9084
:101280000F900F90CF91DF910895DF93CF93CDB75B
:10129000DEB727970FB6F894DEBF0FBECDBF8A83A7
:1012A0006B835D834C833F832E8319828A818823DD
:1012B00019F08B81882319F40E94DC0804C08A810C
:1012C0006B810E9403098E819F818530910519F001
:1012D00089818130A9F48C819D8120E137E2B901B7
:1012E0000E94851FCB01C09690931703809316032D
:1012F00080911603909117030E94820781E08983F1
:101300008E819F818430910519F08981813011F59A
:101310008C819D8128EE33E0B9010E94851FCB01AD
:1013200090931903809318038091180390911903E7
:101330002AE030E0B9010E94851FC09690932303F4
:101340008093220380912203909123030E948207BD
:1013500081E089838E819F818330910519F0898195
:10136000813011F58C819D8124E630E0B9010E9425
:10137000851FCB0190931903809318038091180364
:10138000909119032AE030E0B9010E94851FC096B0
:1013900090931F0380931E0380911E0390911F035F
:1013A0000E94820781E089838E819F81823091052E
:1013B00019F08981813011F58C819D812AE030E01E
:1013C000B9010E94851FCB019093190380931803E4
:1013D00080911803909119032AE030E0B9010E942E
:1013E000851FC09690931D0380931C0380911C035E
:1013F00090911D030E94820781E089838E819F81E5
:101400008130910519F08981813091F48C819D8121
:101410002AE030E0B9010E94851FC0969093210315
:101420008093200380912003909121030E948207E2
:101430008E819F81863091051CF085E40E94820791
:1014400027960FB6F894DEBF0FBECDBFCF91DF91C8
:101450000895DF93CF93CDB7DEB7A1E2B0E0E1E22C
:10146000F0E080818F6C8C93A2E2B0E0E2E2F0E0E9
:10147000808180738C93AAE0B1E0EAE0F1E08081A2
:1014800088618C93ABE0B1E0EBE0F1E080818861B2
:101490008C93ADE2B0E0EDE2F0E0808188608C9367
:1014A000AEE2B0E0EEE2F0E0808188608C93CF9114
:1014B000DF910895DF93CF93CDB7DEB7A4E2B0E01C
:1014C000E4E2F0E0808180628C93A5E2B0E0E5E2A6
:1014D000F0E0808180628C93CF91DF910895DF935B
:1014E000CF93CDB7DEB7ADE2B0E0EDE2F0E08081C2
:1014F0008F7E8C93AEE2B0E0EEE2F0E0808180611E
:101500008C93CF91DF910895DF93CF93CDB7DEB762
:10151000ADE2B0E0EDE2F0E080818F7D8C93AEE251
:10152000B0E0EEE2F0E0808180628C93CF91DF91B9
:101530000895DF93CF93CDB7DEB7ADE2B0E0EDE233
:10154000F0E080818F7B8C93AEE2B0E0EEE2F0E0E1
:10155000808180648C93CF91DF910895DF93CF9346
:10156000CDB7DEB70E94290A0E945A0A0E946F0A6C
:101570000E94840A0E94990ACF91DF910895DF9317
:10158000CF93CDB7DEB7E1E2F1E01082E5E2F1E022
:101590008FEF8083E4E2F1E081E08083E9E2F1E033
:1015A0001082E8E2F1E08FEF8083EBE2F1E010825D
:1015B000EAE2F1E08FEF8083EDE2F1E01082ECE20D
:1015C000F1E08FEF8083E0E2F1E089EA8083E1E2FD
:1015D000F1E08BE08083CF91DF910895DF93CF938B
:1015E000CDB7DEB7E1E9F0E01082E5E9F0E08FEF9A
:1015F0008083E4E9F0E081E08083E9E9F0E01082B3
:10160000E8E9F0E08FEF8083EBE9F0E01082EAE9AF
:10161000F0E08FEF8083EDE9F0E01082ECE9F0E09C
:101620008FEF8083E0E9F0E081E88083E1E9F0E09A
:101630008BE08083CF91DF910895DF93CF93CDB777
:10164000DEB7E1E8F0E01082E5E8F0E08CEF8083BF
:10165000E4E8F0E081E08083E9E8F0E083E0808383
:10166000E8E8F0E08FEF8083E7E8F0E083E0808354
:10167000E6E8F0E08FEF8083E0E8F0E08BEA80833B
:10168000E2E8F0E01082E1E8F0E08CE08083CF91C6
:10169000DF910895DF93CF93CDB7DEB7F894AAE634
:1016A000B0E0EAE6F0E0808182608C93ADE3B0E0E8
:1016B000EDE3F0E0808180618C937894CF91DF91AD
:1016C0000895DF93CF93CDB7DEB7F894AAE6B0E0E4
:1016D000EAE6F0E0808188608C93ADE3B0E0EDE372
:1016E000F0E0808180628C937894CF91DF910895AF
:1016F000DF93CF93CDB7DEB7F894AAE6B0E0EAE681
:10170000F0E0808180628C93ADE3B0E0EDE3F0E047
:10171000808180648C937894CF91DF910895DF93DA
:10172000CF93CDB7DEB7F8940E94AE0A0E94BF0AED
:101730000E94EE0A0E941D0B0E944A0B0E94610B40
:101740000E94780B7894CF91DF910895DF93CF9327
:101750000F920F92CDB7DEB789836A83E8E2F1E09A
:1017600089818083EAE2F1E08A8180830F900F9083
:10177000CF91DF9108951F920F920FB60F9211240F
:101780008F939F93AF93BF93DF93CF93CDB7DEB784
:1017900080910C0390910D03A0910E03B0910F0363
:1017A0000196A11DB11D80930C0390930D03A0938E
:1017B0000E03B0930F03CF91DF91BF91AF919F9133
:1017C0008F910F900FBE0F901F9018951F920F9240
:1017D0000FB60F9211248F939F93AF93BF93DF9314
:1017E000CF93CDB7DEB78091080390910903A09104
:1017F0000A03B0910B030196A11DB11D809308034C
:1018000090930903A0930A03B0930B03CF91DF9148
:10181000BF91AF919F918F910F900FBE0F901F902E
:1018200018951F920F920FB60F9211248F939F93CA
:10183000AF93BF93DF93CF93CDB7DEB78091100303
:1018400090911103A0911203B09113030196A11D71
:10185000B11D8093100390931103A0931203B093D2
:101860001303CF91DF91BF91AF919F918F910F9013
:101870000FBE0F901F901895DF93CF930F920F928A
:10188000CDB7DEB78A8319828A818F7C8A83E2E2B0
:10189000F0E08081898389818073898399818A813D
:1018A000892B8983E2E2F0E0898180830F900F9099
:1018B000CF91DF910895DF93CF93CDB7DEB786E068
:1018C0000E943C0CCF91DF910895DF93CF93CDB769
:1018D000DEB789E00E943C0CCF91DF910895DF9341
:1018E000CF93CDB7DEB785E00E943C0CCF91DF915E
:1018F0000895DF93CF93CDB7DEB78AE00E943C0C0A
:10190000CF91DF910895DF93CF93CDB7DEB780E01D
:101910000E943C0CCF91DF910895DF93CF93CDB718
:10192000DEB72C970FB6F894DEBF0FBECDBF9A87F7
:10193000898780E090E0A0E0B0E08D839E83AF8354
:10194000B88719821A821B821C8289859A85CC01EC
:10195000A0E0B0E0BC01CD010E94171DDC01CB016D
:10196000BC01CD0128E431EE42E850E40E94871B1F
:10197000DC01CB018D839E83AF83B8876D817E812F
:101980008F8198850E94B718DC01CB01CC01A0E0C3
:10199000B0E089839A83AB83BC8310920C031092CE
:1019A0000D0310920E0310920F0310920803109271
:1019B000090310920A0310920B0320910C0330913B
:1019C0000D0340910E0350910F031C8689819A816B
:1019D000AB81BC81281739074A075B0710F081E00B
:1019E0008C87209108033091090340910A0350919C
:1019F0000B031B8689819A81AB81BC81281739072B
:101A00004A075B0710F091E09B878C859B85892BAB
:101A1000882399F20E94830C2C960FB6F894DEBFAF
:101A20000FBECDBFCF91DF910895DF93CF93CDB798
:101A3000DEB72A970FB6F894DEBF0FBECDBF9A87E8
:101A4000898780E090E0A0E0B0E08D839E83AF8343
:101A5000B88719821A821B821C8289859A85CC01DB
:101A6000A0E0B0E0BC01CD010E94171DDC01CB015C
:101A7000BC01CD0125EE30ED4AEA50E40E94871BFF
:101A8000DC01CB018D839E83AF83B8876D817E811E
:101A90008F8198850E94B718DC01CB0189839A83D6
:101AA000AB83BC8310920C0310920D0310920E03B3
:101AB00010920F0320910C0330910D0340910E03FF
:101AC00050910F0389819A81AB81BC818217930762
:101AD000A407B50778F70E94830C2A960FB6F894EE
:101AE000DEBF0FBECDBFCF91DF910895DF93CF93BF
:101AF0000F920F92CDB7DEB79A8389830E945B0C59
:101B000089819A810E94150D0F900F90CF91DF91DE
:101B10000895DF93CF930F920F92CDB7DEB79A83DC
:101B200089830E94650C89819A810E94150D0F900E
:101B30000F90CF91DF910895DF93CF930F920F9283
:101B4000CDB7DEB79A8389830E946F0C89819A8111
:101B50000E948D0C0F900F90CF91DF910895DF932D
:101B6000CF930F920F92CDB7DEB79A8389830E94ED
:101B7000790C89819A810E948D0C0F900F90CF91E2
:101B8000DF910895DF93CF93CDB7DEB780E80E9451
:101B90003C0CCF91DF910895DF93CF93CDB7DEB7A3
:101BA00080E40E943C0CCF91DF910895DF93CF93A6
:101BB000CDB7DEB72A970FB6F894DEBF0FBECDBF04
:101BC0009A87898780E090E0A0E0B0E08D839E83D3
:101BD000AF83B88719821A821B821C8289859A85F5
:101BE000CC01A0E0B0E0BC01CD010E94171DDC01DA
:101BF000CB01BC01CD0125EE30ED4AEA50E40E9454
:101C0000871BDC01CB018D839E83AF83B8876D81F9
:101C10007E818F8198850E94B718DC01CB01898372
:101C20009A83AB83BC83109210031092110310921D
:101C3000120310921303209110033091110340916D
:101C400012035091130389819A81AB81BC81821761
:101C50009307A407B50778F70E94830C2A960FB65E
:101C6000F894DEBF0FBECDBFCF91DF910895DF9313
:101C7000CF930F920F92CDB7DEB79A8389830E94DC
:101C8000C20D89819A810E94D60D0F900F90CF913D
:101C9000DF910895DF93CF930F920F92CDB7DEB708
:101CA0009A8389830E94CC0D89819A810E94D60DE6
:101CB0000F900F90CF91DF9108950F931F93DF93B3
:101CC000CF9300D00F920F92CDB7DEB78D8380E017
:101CD00090E0A0E0B0E089839A83AB83BC838D81E0
:101CE000882F90E0A0E0B0E0BC01CD010E94171D5C
:101CF000DC01CB01BC01CD0120E030E040E150E44B
:101D00000E94871BDC01CB01BC01CD0120E030E04B
:101D100048EA51E40E94601ADC01CB0189839A836E
:101D2000AB83BC83E9E8F0E0108208E810E0698149
:101D30007A818B819C810E94B718DC01CB01F8016C
:101D400080830F900F900F900F900F90CF91DF91A5
:101D50001F910F910895DF93CF93CDB7DEB7E9E8D8
:101D6000F0E083E08083E8E8F0E08FEF8083CF91BC
:101D7000DF9108950F931F93DF93CF93CDB7DEB715
:101D8000C65DD0400FB6F894DEBF0FBECDBF0E9437
:101D9000AE0A0E948F0BFE01EB52FF4F80EF90E0E6
:101DA00091838083FE01ED52FF4F118210820C94CB
:101DB0009D1884EB0E945D0EFE01E153FF4F80E011
:101DC00090E0A8E4B3E480839183A283B3838E017F
:101DD00005531F4FFE01E153FF4F608171818281E6
:101DE000938126E636E646E655E40E948D1ADC012C
:101DF000CB01F80180839183A283B383FE01E55375
:101E0000FF4F608171818281938120E030E040E862
:101E10005FE30E94931C882344F4FE01E753FF4FC5
:101E200081E090E09183808364C0FE01E553FF4F21
:101E3000608171818281938120E03FEF4FE757E419
:101E40000E94331C18160CF043C0FE01E153FF4FF3
:101E5000608171818281938120E030E040E251E431
:101E60000E948D1ADC01CB018E0107531F4FBC016C
:101E7000CD010E94B718DC01CB01F801918380836A
:101E80001FC0FE01E953FF4F80E791E091838083FB
:101E9000FE01E953FF4F808191810197F1F7FE0127
:101EA000E953FF4F91838083DE01A753BF4FFE01AB
:101EB000E753FF4F80819181019711969C938E93F8
:101EC000FE01E753FF4F808191810097D1F627C033
:101ED0008E0107531F4FFE01E553FF4F6081718153
:101EE000828193810E94B718DC01CB01F8019183B4
:101EF0008083DE01AB53BF4FFE01E753FF4F80816C
:101F000091818D939C93FE01EB53FF4F80819181D2
:101F10000197F1F7FE01EB53FF4F9183808382E23B
:101F200091E00E944A0E0E94830CFE01EF53FF4F86
:101F300080E090E0A6E9B3E480839183A283B38339
:101F40008E0103541F4FFE01EF53FF4F60817181DB
:101F50008281938126E636E646E655E40E948D1A94
:101F6000DC01CB01F80180839183A283B383FE015E
:101F7000E354FF4F608171818281938120E030E0E2
:101F800040E85FE30E94931C882344F4FE01E5547B
:101F9000FF4F81E090E09183808364C0FE01E354B1
:101FA000FF4F608171818281938120E03FEF4FE795
:101FB00057E40E94331C18160CF043C0FE01EF5387
:101FC000FF4F608171818281938120E030E040E2A7
:101FD00051E40E948D1ADC01CB018E0105541F4F84
:101FE000BC01CD010E94B718DC01CB01F80191833F
:101FF00080831FC0FE01E754FF4F80E791E091838B
:102000008083FE01E754FF4F808191810197F1F7B2
:10201000FE01E754FF4F91838083DE01A554BF4F3B
:10202000FE01E554FF4F80819181019711969C93A9
:102030008E93FE01E554FF4F808191810097D1F688
:1020400027C08E0105541F4FFE01E354FF4F6081EE
:102050007181828193810E94B718DC01CB01F80164
:1020600091838083DE01A954BF4FFE01E554FF4FE9
:10207000808191818D939C93FE01E954FF4F808173
:1020800091810197F1F7FE01E954FF4F918380831D
:1020900084E60E945D0EFE01ED54FF4F80E090E06B
:1020A000A6E9B3E480839183A283B3838E010155B3
:1020B0001F4FFE01ED54FF4F60817181828193813A
:1020C00026E636E646E655E40E948D1ADC01CB0191
:1020D000F80180839183A283B383FE01E155FF4F12
:1020E000608171818281938120E030E040E85FE38C
:1020F0000E94931C882344F4FE01E355FF4F81E0C6
:1021000090E09183808364C0FE01E155FF4F6081C0
:1021100071818281938120E03FEF4FE757E40E9475
:10212000331C18160CF043C0FE01ED54FF4F6081C4
:1021300071818281938120E030E040E251E40E948D
:102140008D1ADC01CB018E0103551F4FBC01CD015F
:102150000E94B718DC01CB01F801918380831FC076
:10216000FE01E555FF4F80E791E091838083FE01FA
:10217000E555FF4F808191810197F1F7FE01E5550B
:10218000FF4F91838083DE01A355BF4FFE01E355CE
:10219000FF4F80819181019711969C938E93FE0150
:1021A000E355FF4F808191810097D1F627C08E01C2
:1021B00003551F4FFE01E155FF4F60817181828100
:1021C00093810E94B718DC01CB01F80191838083D1
:1021D000DE01A755BF4FFE01E355FF4F808191817E
:1021E0008D939C93FE01E755FF4F8081918101976C
:1021F000F1F7FE01E755FF4F9183808381EE90E078
:102200000E94370EFE01EB55FF4F80E090E0A8E4FE
:10221000B3E480839183A283B3838E010F551F4F54
:10222000FE01EB55FF4F608171818281938126E62B
:1022300036E646E655E40E948D1ADC01CB01F80132
:1022400080839183A283B383FE01EF55FF4F6081AA
:1022500071818281938120E030E040E85FE30E9459
:10226000931C882344F4FE01E156FF4F81E090E087
:102270009183808364C0FE01EF55FF4F60817181BF
:102280008281938120E03FEF4FE757E40E94331CA7
:1022900018160CF043C0FE01EB55FF4F60817181B1
:1022A0008281938120E030E040E251E40E948D1A67
:1022B000DC01CB018E0101561F4FBC01CD010E94F4
:1022C000B718DC01CB01F801918380831FC0FE01A8
:1022D000E356FF4F80E791E091838083FE01E35650
:1022E000FF4F808191810197F1F7FE01E356FF4F87
:1022F00091838083DE01A156BF4FFE01E156FF4F5F
:1023000080819181019711969C938E93FE01E156F5
:10231000FF4F808191810097D1F627C08E01015631
:102320001F4FFE01EF55FF4F6081718182819381C4
:102330000E94B718DC01CB01F80191838083DE0194
:10234000A556BF4FFE01E156FF4F808191818D93CD
:102350009C93FE01E556FF4F808191810197F1F733
:10236000FE01E556FF4F918380830E94AB0EFE0174
:10237000E956FF4F80E090E0A6E9B3E480839183C3
:10238000A283B3838E010D561F4FFE01E956FF4F06
:10239000608171818281938126E636E646E655E4C6
:1023A0000E948D1ADC01CB01F80180839183A28306
:1023B000B383FE01ED56FF4F60817181828193816D
:1023C00020E030E040E85FE30E94931C882344F45F
:1023D000FE01EF56FF4F81E090E09183808364C05F
:1023E000FE01ED56FF4F608171818281938120E073
:1023F0003FEF4FE757E40E94331C18160CF043C020
:10240000FE01E956FF4F608171818281938120E056
:1024100030E040E251E40E948D1ADC01CB018E01D4
:102420000F561F4FBC01CD010E94B718DC01CB0134
:10243000F801918380831FC0FE01E157FF4F80E7C1
:1024400091E091838083FE01E157FF4F808191816C
:102450000197F1F7FE01E157FF4F91838083DE0181
:10246000AF56BF4FFE01EF56FF4F8081918101971C
:1024700011969C938E93FE01EF56FF4F80819181C0
:102480000097D1F627C08E010F561F4FFE01ED5663
:10249000FF4F60817181828193810E94B718DC01B6
:1024A000CB01F80191838083DE01A357BF4FFE016A
:1024B000EF56FF4F808191818D939C93FE01E357EE
:1024C000FF4F808191810197F1F7FE01E357FF4FA4
:1024D000918380838AEA68EC0E94A60BFE01EB528E
:1024E000FF4F808191810E94890D0E94830CFE0123
:1024F000E757FF4F80E090E0A6E9B3E48083918343
:10250000A283B3838E010B571F4FFE01E757FF4F86
:10251000608171818281938126E636E646E655E444
:102520000E948D1ADC01CB01F80180839183A28384
:10253000B383FE01EB57FF4F6081718182819381EC
:1025400020E030E040E85FE30E94931C882344F4DD
:10255000FE01ED57FF4F81E090E09183808364C0DE
:10256000FE01EB57FF4F608171818281938120E0F2
:102570003FEF4FE757E40E94331C18160CF043C09E
:10258000FE01E757FF4F608171818281938120E0D6
:1025900030E040E251E40E948D1ADC01CB018E0153
:1025A0000D571F4FBC01CD010E94B718DC01CB01B4
:1025B000F801918380831FC0FE01EF57FF4F80E732
:1025C00091E091838083FE01EF57FF4F80819181DD
:1025D0000197F1F7FE01EF57FF4F91838083DE01F2
:1025E000AD57BF4FFE01ED57FF4F8081918101979D
:1025F00011969C938E93FE01ED57FF4F8081918140
:102600000097D1F627C08E010D571F4FFE01EB57E3
:10261000FF4F60817181828193810E94B718DC0134
:10262000CB01F80191838083DE01A158BF4FFE01E9
:10263000ED57FF4F808191818D939C93FE01E1586E
:10264000FF4F808191810197F1F7FE01E158FF4F23
:10265000918380838EEB60EF0E94A60B84E690E06E
:102660000E94AF0DFE01E558FF4F80E090E0A8E426
:10267000B3E480839183A283B3838E0109581F4FF3
:10268000FE01E558FF4F608171818281938126E6CA
:1026900036E646E655E40E948D1ADC01CB01F801CE
:1026A00080839183A283B383FE01E958FF4F608149
:1026B00071818281938120E030E040E85FE30E94F5
:1026C000931C882344F4FE01EB58FF4F81E090E017
:1026D0009183808364C0FE01E958FF4F608171815E
:1026E0008281938120E03FEF4FE757E40E94331C43
:1026F00018160CF043C0FE01E558FF4F6081718150
:102700008281938120E030E040E251E40E948D1A02
:10271000DC01CB018E010B581F4FBC01CD010E9483
:10272000B718DC01CB01F801918380831FC0FE0143
:10273000ED58FF4F80E791E091838083FE01ED58D3
:10274000FF4F808191810197F1F7FE01ED58FF4F16
:1027500091838083DE01AB58BF4FFE01EB58FF4FE2
:1027600080819181019711969C938E93FE01EB5885
:10277000FF4F808191810097D1F627C08E010B58C1
:102780001F4FFE01E958FF4F608171818281938163
:102790000E94B718DC01CB01F80191838083DE0130
:1027A000AF58BF4FFE01EB58FF4F808191818D9351
:1027B0009C93FE01EF58FF4F808191810197F1F7C3
:1027C000FE01EF58FF4F918380830E94830C81E9C3
:1027D00068EC0E94A60B80E991E00E94760D0E94B1
:1027E000830CFE01E359FF4F80E090E0A6E9B3E4DB
:1027F00080839183A283B3838E0107591F4FFE010B
:10280000E359FF4F608171818281938126E636E62C
:1028100046E655E40E948D1ADC01CB01F801808365
:102820009183A283B383FE01E759FF4F60817181D9
:102830008281938120E030E040E85FE30E94931CB6
:10284000882344F4FE01E959FF4F81E090E0918331
:10285000808364C0FE01E759FF4F608171818281EE
:10286000938120E03FEF4FE757E40E94331C181696
:102870000CF043C0FE01E359FF4F608171818281FA
:10288000938120E030E040E251E40E948D1ADC01A7
:10289000CB018E0109591F4FBC01CD010E94B71811
:1028A000DC01CB01F801918380831FC0FE01EB594D
:1028B000FF4F80E791E091838083FE01EB59FF4F4A
:1028C000808191810197F1F7FE01EB59FF4F9183D0
:1028D0008083DE01A959BF4FFE01E959FF4F808176
:1028E0009181019711969C938E93FE01E959FF4FB8
:1028F000808191810097D1F627C08E0109591F4F21
:10290000FE01E759FF4F60817181828193810E94AE
:10291000B718DC01CB01F80191838083DE01AD594A
:10292000BF4FFE01E959FF4F808191818D939C93A8
:10293000FE01ED59FF4F808191810197F1F7FE0172
:10294000ED59FF4F9183808381EE90E00E944A0E03
:10295000FE01E15AFF4F80E090E0A6E1B4E48083FD
:102960009183A283B3838E01055A1F4FFE01E15A62
:10297000FF4F608171818281938126E636E646E6CB
:1029800055E40E948D1ADC01CB01F801808391830C
:10299000A283B383FE01E55AFF4F6081718182817A
:1029A000938120E030E040E85FE30E94931C88239D
:1029B00044F4FE01E75AFF4F81E090E09183808369
:1029C00064C0FE01E55AFF4F60817181828193816D
:1029D00020E03FEF4FE757E40E94331C18160CF03D
:1029E00043C0FE01E15AFF4F608171818281938172
:1029F00020E030E040E251E40E948D1ADC01CB017E
:102A00008E01075A1F4FBC01CD010E94B718DC018F
:102A1000CB01F801918380831FC0FE01E95AFF4F6B
:102A200080E791E091838083FE01E95AFF4F808126
:102A300091810197F1F7FE01E95AFF4F918380835D
:102A4000DE01A75ABF4FFE01E75AFF4F80819181F7
:102A5000019711969C938E93FE01E75AFF4F808158
:102A600091810097D1F627C08E01075A1F4FFE01B2
:102A7000E55AFF4F60817181828193810E94B7186E
:102A8000DC01CB01F80191838083DE01AB5ABF4F9B
:102A9000FE01E75AFF4F808191818D939C93FE0147
:102AA000EB5AFF4F808191810197F1F7FE01EB5ABC
:102AB000FF4F91838083FE01EF5AFF4F80E090E04B
:102AC000A6E9B4E480839183A283B3838E01035B80
:102AD0001F4FFE01EF5AFF4F608171818281938108
:102AE00026E636E646E655E40E948D1ADC01CB0167
:102AF000F80180839183A283B383FE01E35BFF4FE0
:102B0000608171818281938120E030E040E85FE361
:102B10000E94931C882344F4FE01E55BFF4F81E093
:102B200090E09183808364C0FE01E35BFF4F60818E
:102B300071818281938120E03FEF4FE757E40E944B
:102B4000331C18160CF043C0FE01EF5AFF4F608192
:102B500071818281938120E030E040E251E40E9463
:102B60008D1ADC01CB018E01055B1F4FBC01CD012D
:102B70000E94B718DC01CB01F801918380831FC04C
:102B8000FE01E75BFF4F80E791E091838083FE01C8
:102B9000E75BFF4F808191810197F1F7FE01E75BD1
:102BA000FF4F91838083DE01A55BBF4FFE01E55B94
:102BB000FF4F80819181019711969C938E93FE0126
:102BC000E55BFF4F808191810097D1F627C08E0190
:102BD000055B1F4FFE01E35BFF4F608171818281C6
:102BE00093810E94B718DC01CB01F80191838083A7
:102BF000DE01A95BBF4FFE01E55BFF4F8081918144
:102C00008D939C93FE01E95BFF4F80819181019739
:102C1000F1F7FE01E95BFF4F9183808384EB0E9413
:102C20005D0EFE01ED5BFF4F80E090E0A6E9B3E4AE
:102C300080839183A283B3838E01015C1F4FFE01C9
:102C4000ED5BFF4F608171818281938126E636E6DC
:102C500046E655E40E948D1ADC01CB01F801808321
:102C60009183A283B383FE01FF966081718182818B
:102C7000938120E030E040E85FE30E94931C8823CA
:102C80002CF481E090E09EAF8DAF46C0FE01FF9630
:102C9000608171818281938120E03FEF4FE757E4AB
:102CA0000E94331C181664F5FE01ED5BFF4F608136
:102CB00071818281938120E030E040E251E40E9402
:102CC0008D1ADC01CB01BC01CD010E94B718DC01DB
:102CD000CB019EAF8DAF0FC080E791E09CAF8BAF73
:102CE0008BAD9CAD0197F1F79CAF8BAF8DAD9EADD9
:102CF00001979EAF8DAF8DAD9EAD009769F716C061
:102D0000FE01FF9660817181828193810E94B718D4
:102D1000DC01CB019EAF8DAF8DAD9EAD9AAF89AF7B
:102D200089AD9AAD0197F1F79AAF89AF82E291E050
:102D30000E94370E0E94830C80E090E0A8ECB2E481
:102D40008DAB9EABAFABB8AF6DA97EA98FA998AD87
:102D500026E636E646E655E40E948D1ADC01CB01F4
:102D600089AB9AABABABBCAB69A97AA98BA99CA97F
:102D700020E030E040E85FE30E94931C88232CF4BD
:102D800081E090E098AB8FA73FC069A97AA98BA991
:102D90009CA920E03FEF4FE757E40E94331C181630
:102DA0004CF56DA97EA98FA998AD20E030E040E2F6
:102DB00051E40E948D1ADC01CB01BC01CD010E94BF
:102DC000B718DC01CB0198AB8FA70FC080E791E06B
:102DD0009EA78DA78DA59EA50197F1F79EA78DA70C
:102DE0008FA598A9019798AB8FA78FA598A9009751
:102DF00069F714C069A97AA98BA99CA90E94B71880
:102E0000DC01CB0198AB8FA78FA598A99CA78BA7B6
:102E10008BA59CA50197F1F79CA78BA78AEA68EC84
:102E20000E94A60B80E991E00E94890D80E090E06D
:102E3000A6E9B3E48FA398A7A9A7BAA76FA178A51D
:102E400089A59AA526E636E646E655E40E948D1A3F
:102E5000DC01CB018BA39CA3ADA3BEA36BA17CA182
:102E60008DA19EA120E030E040E85FE30E94931C2A
:102E700088232CF481E090E09AA389A33FC06BA142
:102E80007CA18DA19EA120E03FEF4FE757E40E9477
:102E9000331C18164CF56FA178A589A59AA520E0DA
:102EA00030E040E251E40E948D1ADC01CB01BC010C
:102EB000CD010E94B718DC01CB019AA389A30FC0F2
:102EC00080E791E098A38F8F8F8D98A10197F1F7FC
:102ED00098A38F8F89A19AA101979AA389A389A109
:102EE0009AA1009769F714C06BA17CA18DA19EA146
:102EF0000E94B718DC01CB019AA389A389A19AA1EA
:102F00009E8F8D8F8D8D9E8D0197F1F79E8F8D8F6A
:102F10000E94830C8EEB60EF0E94A60B8AE590E086
:102F20000E949C0D0E94830C80E090E0A0E7B2E438
:102F3000898F9A8FAB8FBC8F698D7A8D8B8D9C8D8D
:102F400026E636E646E655E40E948D1ADC01CB0102
:102F50008D8B9E8BAF8BB88F6D897E898F89988D75
:102F600020E030E040E85FE30E94931C88232CF4CB
:102F700081E090E09C8B8B8B3FC06D897E898F892F
:102F8000988D20E03FEF4FE757E40E94331C18165E
:102F90004CF5698D7A8D8B8D9C8D20E030E040E280
:102FA00051E40E948D1ADC01CB01BC01CD010E94CD
:102FB000B718DC01CB019C8B8B8B0FC080E791E0B5
:102FC0009A8B898B89899A890197F1F79A8B898BDA
:102FD0008B899C8901979C8B8B8B8B899C89009713
:102FE00069F714C06D897E898F89988D0E94B71802
:102FF000DC01CB019C8B8B8B8B899C89988B8F8779
:103000008F8598890197F1F7988B8F878EEB60EF0A
:103010000E94A60BFE01EB52FF4F808191810E941E
:10302000760D0E94830C80E090E0A6E9B3E48B87E4
:103030009C87AD87BE876B857C858D859E8526E6C2
:1030400036E646E655E40E948D1ADC01CB018F83FB
:103050009887A987BA876F81788589859A8520E0C6
:1030600030E040E85FE30E94931C88232CF481E069
:1030700090E09E838D833FC06F81788589859A8596
:1030800020E03FEF4FE757E40E94331C18164CF541
:103090006B857C858D859E8520E030E040E251E4A3
:1030A0000E948D1ADC01CB01BC01CD010E94B71832
:1030B000DC01CB019E838D830FC080E791E09C8370
:1030C0008B838B819C810197F1F79C838B838D810E
:1030D0009E8101979E838D838D819E81009769F7E4
:1030E00014C06F81788589859A850E94B718DC01A4
:1030F000CB019E838D838D819E819A838983898173
:103100009A810197F1F79A838983DE01AB52BF4F11
:10311000FE01EB52FF4F80819181885790408D9343
:103120009C93DE01AD52BF4FFE01ED52FF4F8081F7
:103130009181019611969C938E93FE01ED52FF4F63
:10314000808191818330910514F40C94D90E0E94F2
:10315000830C80E090E0CA52DF4F0FB6F894DEBFD8
:103160000FBECDBFCF91DF911F910F910895EF92C8
:10317000FF920F931F937B018C0120E030E040E031
:103180005FE40E94631C88238CF0C801B70120E033
:1031900030E040E05FE40E942F1A0E94C31C9B01B4
:1031A000AC01205030404040504806C0C801B70133
:1031B0000E94C31C9B01AC01B901CA011F910F9170
:1031C000FF90EF900895A0E0B0E0E9EEF8E10C94F4
:1031D000991FDC012B01FA019C91923008F439C14E
:1031E000EB018881823008F433C1943069F4843073
:1031F00009F02FC111969C9111978981981709F4B4
:1032000028C1A0E0B2E025C1843009F421C1823098
:10321000A9F4923009F01DC19A01AD0188E0EA01DC
:103220000990AE01E90109929E018150C1F7E201C6
:10323000898111969C918923818308C1923009F478
:1032400007C112962D903C901397EB018A819B81C8
:103250001496AD90BD90CD90DC901797EC80FD80DA
:103260000E811F819101281B390BB90137FF04C062
:1032700066277727621B730B603271050CF061C003
:10328000121613066CF537014801062E04C09694F9
:103290008794779467940A94D2F721E030E040E075
:1032A00050E004C0220F331F441F551F6A95D2F708
:1032B00021503040404050402E213F214023512397
:1032C000211531054105510521F021E030E040E0B4
:1032D00050E079018A01E628F728082919293CC01D
:1032E000232BD1F1260E371E35014601062E04C0D0
:1032F00096948794779467940A94D2F721E030E00B
:1033000040E050E004C0220F331F441F551F6A9550
:10331000D2F721503040404050402A213B214C21DF
:103320005D21211531054105510521F021E030E0F5
:1033300040E050E059016A01A628B728C828D928DA
:103340000BC0821593052CF01C01AA24BB24650137
:1033500003C0EE24FF24870111969C91D20111969F
:103360008C91981709F445C0992339F0A801970169
:103370002A193B094C095D0906C0A60195012E19C1
:103380003F09400B510B57FD08C011823382228246
:1033900024833583468357831DC081E08183338234
:1033A000228288279927DC01821B930BA40BB50B83
:1033B00084839583A683B7830DC0220F331F441FD8
:1033C000551F2483358346835783828193810197D8
:1033D000938382832481358146815781DA01C90133
:1033E0000197A109B1098F5F9F4FAF4FBF4328F3EA
:1033F0000BC0918333822282EA0CFB1C0C1D1D1D25
:10340000E482F5820683178383E0808324813581FB
:103410004681578157FF1AC0C901AA2797FDA09579
:10342000BA2F81709070A070B070569547953795FF
:103430002795822B932BA42BB52B84839583A6836E
:10344000B78382819381019693838283DF0101C0D8
:10345000D201CD01CDB7DEB7E2E10C94B51FA0E2F9
:10346000B0E0E5E3FAE10C94A51F69837A838B83CE
:103470009C832D833E834F835887E9E0EE2EF12C09
:10348000EC0EFD1ECE010196B7010E94B41E8E0106
:103490000F5E1F4FCE010596B8010E94B41E8A89A7
:1034A00091E089278A8BC701B801AE01475E5F4F63
:1034B0000E94E3180E94DF1DA096E6E00C94C11F55
:1034C000A0E2B0E0E6E6FAE10C94A51F69837A83F6
:1034D0008B839C832D833E834F835887F9E0EF2EA7
:1034E000F12CEC0EFD1ECE010196B7010E94B41E18
:1034F0008E010F5E1F4FCE010596B8010E94B41ECB
:10350000C701B801AE01475E5F4F0E94E3180E94F9
:10351000DF1DA096E6E00C94C11FA0E2B0E0E3E955
:10352000FAE10C94991F69837A838B839C832D83A2
:103530003E834F835887CE010196BE01675F7F4F60
:103540000E94B41ECE010596BE016F5E7F4F0E94A1
:10355000B41E9985923088F089898230C8F0943001
:1035600019F4823051F404C0843029F4923081F48B
:1035700080E092E0C6C0923049F420E09A858A89C2
:10358000981321E02A87CE010996BBC0823049F406
:1035900020E09A858A89981321E02A8BCE014196F2
:1035A000B0C02D843E844F8458886D887E888F8873
:1035B000988CEE24FF248701AA24BB24650140E0F7
:1035C00050E060E070E0E0E0F0E0C10181709070F8
:1035D000892BE9F0E60CF71C081D191D9A01AB01B7
:1035E0002A0D3B1D4C1D5D1D80E090E0A0E0B0E089
:1035F000E614F7040805190520F481E090E0A0E046
:10360000B0E0BA01A901480F591F6A1F7B1FAA0C1D
:10361000BB1CCC1CDD1C97FE08C081E090E0A0E044
:10362000B0E0A82AB92ACA2ADB2A3196E032F1058D
:1036300049F0660C771C881C991C56944794379463
:103640002794C3CFFA85EA892B893C898B859C8591
:10365000280F391F2E5F3F4F17C0CA01817090702D
:10366000892B61F016950795F794E79480E090E038
:10367000A0E0B0E8E82AF92A0A2B1B2B769567957B
:10368000579547952F5F3F4F77FDE7CF0CC0440F0D
:10369000551F661F771F17FD4160EE0CFF1C001FB2
:1036A000111F21503040403090E0590790E06907E9
:1036B00090E4790760F32B8F3C8FDB01CA018F7791
:1036C0009070A070B07080349105A105B10561F4CF
:1036D00047FD0AC0E114F1040105110529F0405C21
:1036E0005F4F6F4F7F4F40781A8EFE1711F081E0C9
:1036F0008A8F4D8F5E8F6F8F78A383E0898FCE0185
:1037000049960E94DF1DA096E2E10C94B51FA8E146
:10371000B0E0EDE8FBE10C94A11F69837A838B8311
:103720009C832D833E834F835887B9E0EB2EF12C89
:10373000EC0EFD1ECE010196B7010E94B41E8E0153
:103740000F5E1F4FCE010596B8010E94B41E298559
:10375000223008F47EC03989323010F4B8017CC0C0
:103760008A859A8989278A87243011F0223031F49A
:10377000231709F06EC060E072E06EC0343039F497
:103780001D861E861F86188A1C861B8604C0323042
:1037900021F484E08987B7015FC02B853C858B8944
:1037A0009C89281B390B3C872B87ED84FE840F8571
:1037B0001889AD88BE88CF88D88CEA14FB040C0524
:1037C0001D0540F4EE0CFF1C001F111F215030405E
:1037D0003C872B8720E030E040E050E080E090E044
:1037E000A0E0B0E460E070E0EA14FB040C051D0505
:1037F00040F0282B392B4A2B5B2BEA18FB080C09CD
:103800001D09B695A79597958795EE0CFF1C001F8F
:10381000111F6F5F7F4F6F31710531F7DA01C901F9
:103820008F779070A070B07080349105A105B105BC
:1038300061F427FD0AC0E114F1040105110529F026
:10384000205C3F4F4F4F5F4F20782D873E874F873B
:10385000588BBE01675F7F4FCB010E94DF1D6896CA
:10386000EAE00C94BD1FA8E1B0E0E9E3FCE10C94B0
:10387000A51F69837A838B839C832D833E834F832B
:10388000588789E0E82EF12CEC0EFD1ECE01019642
:10389000B7010E94B41E8E010F5E1F4FCE01059628
:1038A000B8010E94B41E8985823040F08989823037
:1038B00028F0C701B8010E942C1F01C08FEF689645
:1038C000E6E00C94C11FA8E1B0E0E9E6FCE10C944D
:1038D000A51F69837A838B839C832D833E834F83CB
:1038E000588789E0E82EF12CEC0EFD1ECE010196E2
:1038F000B7010E94B41E8E010F5E1F4FCE010596C8
:10390000B8010E94B41E8985823040F089898230D6
:1039100028F0C701B8010E942C1F01C08FEF6896E4
:10392000E6E00C94C11FA8E1B0E0E9E9FCE10C94E9
:10393000A51F69837A838B839C832D833E834F836A
:10394000588789E0E82EF12CEC0EFD1ECE01019681
:10395000B7010E94B41E8E010F5E1F4FCE01059667
:10396000B8010E94B41E8985823040F08989823076
:1039700028F0C701B8010E942C1F01C081E06896A1
:10398000E6E00C94C11FACE0B0E0E9ECFCE10C9483
:10399000A91F69837A838B839C83CE010196BE0124
:1039A0006B5F7F4F0E94B41E8D81823061F1823047
:1039B00050F1843021F48E81882351F12EC02F8163
:1039C000388537FD20C06E812F3131051CF066230C
:1039D000F9F023C08EE190E0821B930B29853A8594
:1039E0004B855C8504C056954795379527958A95F4
:1039F000D2F76623B1F050954095309521953F4F11
:103A00004F4F5F4F0EC020E030E040E050E009C073
:103A10002FEF3FEF4FEF5FE704C020E030E040E0E2
:103A200050E8B901CA012C96E2E00C94C51FA8E049
:103A3000B0E0EDE1FDE10C94A11F7B018C0161156B
:103A400071058105910519F482E0898360C083E0E6
:103A500089838EE1C82ED12CDC82CB82ED82FE825E
:103A60000F831887C801B7010E94901DFC01319790
:103A7000F7FF3BC0222733272E1B3F0B570168015E
:103A8000022E04C0D694C794B794A7940A94D2F790
:103A900040E050E060E070E081E090E0A0E0B0E065
:103AA00004C0880F991FAA1FBB1F2A95D2F7019740
:103AB000A109B1098E219F21A023B1230097A1055F
:103AC000B10521F041E050E060E070E04A295B2957
:103AD0006C297D294D835E836F8378878EE190E02A
:103AE0008E1B9F0B9C838B8312C0309781F00E2E10
:103AF00004C0EE0CFF1C001F111F0A94D2F7ED82C8
:103B0000FE820F831887CE1ADF0ADC82CB821A82EC
:103B1000CE0101960E94DF1D2896EAE00C94BD1F9D
:103B2000EF92FF920F931F937B018C0180E0E816C8
:103B300080E0F80681E0080780E0180788F48FEF3E
:103B4000E816F1040105110531F028F088E090E055
:103B5000A0E0B0E017C080E090E0A0E0B0E012C0CC
:103B600080E0E81680E0F80680E0080781E01807AA
:103B700028F088E190E0A0E0B0E004C080E190E0AF
:103B8000A0E0B0E020E230E040E050E0281B390B3C
:103B90004A0B5B0B04C016950795F794E7948A953A
:103BA000D2F7F701E85FFD4F8081281B31094109F9
:103BB0005109C9011F910F91FF90EF900895DF9275
:103BC000EF92FF920F931F93FC01E480F580068132
:103BD0001781D1808081823048F480E090E0A0E1BC
:103BE000B0E0E82AF92A0A2B1B2BA5C0843009F47F
:103BF0009FC0823021F4EE24FF24870105C0E11428
:103C0000F1040105110519F4E0E0F0E096C06281CD
:103C100073819FEF623879070CF05BC022E83FEFB9
:103C2000261B370B2A3131052CF020E030E040E034
:103C300050E02AC0B801A701022E04C0769567950E
:103C4000579547950A94D2F781E090E0A0E0B0E064
:103C500004C0880F991FAA1FBB1F2A95D2F701978E
:103C6000A109B1098E219F21A023B1230097A105AD
:103C7000B10521F081E090E0A0E0B0E09A01AB0155
:103C8000282B392B4A2B5B2BDA01C9018F779070D7
:103C9000A070B07080349105A105B10539F427FFFB
:103CA00009C0205C3F4F4F4F5F4F04C0215C3F4F26
:103CB0004F4F5F4FE0E0F0E02030A0E03A07A0E097
:103CC0004A07A0E45A0710F0E1E0F0E079018A0128
:103CD00027C06038710564F5FB01E158FF4FD8013A
:103CE000C7018F779070A070B07080349105A105E6
:103CF000B10539F4E7FE0DC080E490E0A0E0B0E04B
:103D000004C08FE390E0A0E0B0E0E80EF91E0A1FC7
:103D10001B1F17FF05C016950795F794E79431967A
:103D200087E016950795F794E7948A95D1F705C033
:103D3000EE24FF248701EFEFF0E06E2F67956627F2
:103D40006795902F9F77D794DD24D7948E2F8695F3
:103D5000492F462B582F5D29B701CA011F910F919A
:103D6000FF90EF90DF900895FC01DB0140815181CD
:103D70002281622F6F7770E0221F2227221F9381FA
:103D8000892F880F822B282F30E0991F9927991FA0
:103D900011969C93119721153105A9F541155105EF
:103DA0006105710511F482E037C082E89FEF139638
:103DB0009C938E9312979A01AB0167E0220F331FF9
:103DC000441F551F6A95D1F783E08C930DC0220FD5
:103DD000331F441F551F12968D919C911397019785
:103DE00013969C938E931297203080E0380780E0E2
:103DF000480780E4580758F314962D933D934D934C
:103E00005C93179708952F3F310579F441155105BB
:103E10006105710519F484E08C93089564FF03C073
:103E200081E08C9312C01C9210C02F573040139623
:103E30003C932E93129783E08C9387E0440F551F99
:103E4000661F771F8A95D1F7706414964D935D9322
:103E50006D937C93179708951F93DC01FB019C9150
:103E6000923008F447C08081823008F443C0943017
:103E700051F411961C91843099F58181682F70E07E
:103E8000611B71093FC0843021F0923031F48230DF
:103E9000B9F18181882389F12DC011961C91119768
:103EA0008230F1F081811817D9F412962D913C914E
:103EB0001397828193818217930794F0281739070B
:103EC000BCF014968D919D910D90BC91A02D2481F4
:103ED000358146815781281739074A075B0718F44F
:103EE000112341F00AC082179307A407B50740F4D5
:103EF000112319F061E070E005C06FEF7FEF02C0A1
:103F000060E070E0CB011F910895AA1BBB1B51E13B
:103F100007C0AA1FBB1FA617B70710F0A61BB70B39
:103F2000881F991F5A95A9F780959095BC01CD01DE
:103F300008952F923F924F925F926F927F928F924D
:103F40009F92AF92BF92CF92DF92EF92FF920F9328
:103F50001F93CF93DF93CDB7DEB7CA1BDB0B0FB632
:103F6000F894DEBF0FBECDBF19942A8839884888DF
:103F70005F846E847D848C849B84AA84B984C88485
:103F8000DF80EE80FD800C811B81AA81B981CE0F7C
:103F9000D11D0FB6F894DEBF0FBECDBFED01089561
:043FA000F894FFCFC3
:103FA40000000000000000000001020203030303FC
:103FB40004040404040404040505050505050505B5
:103FC4000505050505050505060606060606060695
:103FD400060606060606060606060606060606067D
:103FE4000606060606060606070707070707070765
:103FF400070707070707070707070707070707074D
:10400400070707070707070707070707070707073C
:10401400070707070707070707070707070707072C
:104024000707070707070707080808080808080814
:1040340008080808080808080808080808080808FC
:1040440008080808080808080808080808080808EC
:1040540008080808080808080808080808080808DC
:1040640008080808080808080808080808080808CC
:1040740008080808080808080808080808080808BC
:1040840008080808080808080808080808080808AC
:10409400080808080808080808080808080808089C
:0840A4000808080808080808D4
:00000001FF
